{
  "contractName": "Post",
  "abi": [
    {
      "constant": true,
      "inputs": [],
      "name": "supportsInterface",
      "outputs": [
        {
          "name": "",
          "type": "bytes32"
        }
      ],
      "payable": false,
      "stateMutability": "view",
      "type": "function"
    },
    {
      "constant": true,
      "inputs": [],
      "name": "owner",
      "outputs": [
        {
          "name": "",
          "type": "address"
        }
      ],
      "payable": false,
      "stateMutability": "view",
      "type": "function"
    },
    {
      "constant": false,
      "inputs": [
        {
          "name": "newOwner",
          "type": "address"
        }
      ],
      "name": "transferOwnership",
      "outputs": [],
      "payable": false,
      "stateMutability": "nonpayable",
      "type": "function"
    },
    {
      "inputs": [
        {
          "name": "name",
          "type": "string"
        }
      ],
      "payable": false,
      "stateMutability": "nonpayable",
      "type": "constructor"
    },
    {
      "anonymous": false,
      "inputs": [
        {
          "indexed": false,
          "name": "ipfsHashes",
          "type": "bytes32[]"
        }
      ],
      "name": "GetAllPost",
      "type": "event"
    },
    {
      "anonymous": false,
      "inputs": [
        {
          "indexed": true,
          "name": "previousOwner",
          "type": "address"
        },
        {
          "indexed": true,
          "name": "newOwner",
          "type": "address"
        }
      ],
      "name": "OwnershipTransferred",
      "type": "event"
    },
    {
      "constant": true,
      "inputs": [],
      "name": "getAllPosts",
      "outputs": [],
      "payable": false,
      "stateMutability": "view",
      "type": "function"
    },
    {
      "constant": false,
      "inputs": [
        {
          "name": "ipfsHash",
          "type": "bytes32"
        }
      ],
      "name": "insertPost",
      "outputs": [],
      "payable": false,
      "stateMutability": "nonpayable",
      "type": "function"
    },
    {
      "constant": true,
      "inputs": [
        {
          "name": "ipfsHash",
          "type": "bytes32"
        }
      ],
      "name": "isValidArticle",
      "outputs": [
        {
          "name": "reslut",
          "type": "bool"
        }
      ],
      "payable": false,
      "stateMutability": "view",
      "type": "function"
    }
  ],
  "bytecode": "0x6060604052341561000f57600080fd5b60405161062338038061062383398101604052808051820191905050336000806101000a81548173ffffffffffffffffffffffffffffffffffffffff021916908373ffffffffffffffffffffffffffffffffffffffff160217905550806040518082805190602001908083835b6020831015156100a1578051825260208201915060208101905060208303925061007c565b6001836020036101000a0380198251168184511680821785525050505050509050019150506040518091039020600181600019169055505061053b806100e86000396000f300606060405260043610610078576000357c0100000000000000000000000000000000000000000000000000000000900463ffffffff1680631c7ce93c1461007d57806330561100146100a4578063585582fb146100b95780638da5cb5b146100ea57806393d175871461013f578063f2fde38b1461017e575b600080fd5b341561008857600080fd5b6100a26004808035600019169060200190919050506101b7565b005b34156100af57600080fd5b6100b7610278565b005b34156100c457600080fd5b6100cc6102f4565b60405180826000191660001916815260200191505060405180910390f35b34156100f557600080fd5b6100fd6102fa565b604051808273ffffffffffffffffffffffffffffffffffffffff1673ffffffffffffffffffffffffffffffffffffffff16815260200191505060405180910390f35b341561014a57600080fd5b61016460048080356000191690602001909190505061031f565b604051808215151515815260200191505060405180910390f35b341561018957600080fd5b6101b5600480803573ffffffffffffffffffffffffffffffffffffffff16906020019091905050610369565b005b6000809054906101000a900473ffffffffffffffffffffffffffffffffffffffff1673ffffffffffffffffffffffffffffffffffffffff163373ffffffffffffffffffffffffffffffffffffffff1614151561021257600080fd5b6002805480600101828161022691906104be565b916000526020600020900160008390919091509060001916905550600160036000836000191660001916815260200190815260200160002060006101000a81548160ff02191690831515021790555050565b7f80edb1f2f37fcb162c459ed5cacf9493f0b26f2707842f674d488ce02ce086666002604051808060200182810382528381815481526020019150805480156102e457602002820191906000526020600020905b815460001916815260200190600101908083116102cc575b50509250505060405180910390a1565b60015481565b6000809054906101000a900473ffffffffffffffffffffffffffffffffffffffff1681565b60006001151560036000846000191660001916815260200190815260200160002060009054906101000a900460ff161515141561035f5760019050610364565b600090505b919050565b6000809054906101000a900473ffffffffffffffffffffffffffffffffffffffff1673ffffffffffffffffffffffffffffffffffffffff163373ffffffffffffffffffffffffffffffffffffffff161415156103c457600080fd5b600073ffffffffffffffffffffffffffffffffffffffff168173ffffffffffffffffffffffffffffffffffffffff161415151561040057600080fd5b8073ffffffffffffffffffffffffffffffffffffffff166000809054906101000a900473ffffffffffffffffffffffffffffffffffffffff1673ffffffffffffffffffffffffffffffffffffffff167f8be0079c531659141344cd1fd0a4f28419497f9722a3daafe3b4186f6b6457e060405160405180910390a3806000806101000a81548173ffffffffffffffffffffffffffffffffffffffff021916908373ffffffffffffffffffffffffffffffffffffffff16021790555050565b8154818355818115116104e5578183600052602060002091820191016104e491906104ea565b5b505050565b61050c91905b808211156105085760008160009055506001016104f0565b5090565b905600a165627a7a72305820c3a09d21aad6c30d21ce93b635c986984b85fd1cf8f32421fe7b17290d476ee70029",
  "source": "pragma solidity ^0.4.9;\nimport \"../node_modules/zeppelin-solidity/contracts/ownership/Ownable.sol\";\n\ncontract Post is Ownable {\n\n  bytes32 public supportsInterface;\n  function Post(string name) public {\n    supportsInterface = keccak256(name);\n  }\n\n  bytes32[] articleHashes;\n  mapping(bytes32 => bool) articleHashMap;\n\n  event GetAllPost(\n    bytes32[] ipfsHashes\n  );\n  function getAllPosts()\n    view\n    public \n  {\n    GetAllPost(articleHashes);\n  }\n\n  function insertPost(bytes32 ipfsHash)\n    public\n    onlyOwner\n  {\n    articleHashes.push(ipfsHash);\n    articleHashMap[ipfsHash] = true;\n  }\n\n  function isValidArticle(bytes32 ipfsHash)\n    public\n    view\n    returns(bool reslut)\n  {\n    if (articleHashMap[ipfsHash] == true) {\n      return true;\n    }\n\n    return false;\n  }\n}\n",
  "sourcePath": "/Users/jermysu/Desktop/ethereum/insider-core/service/truffle/contracts/Post.sol",
  "compiler": {
    "name": "solc",
    "version": "0.4.19+commit.c4cbbb05.Emscripten.clang"
  },
  "schemaVersion": "2.0.0",
  "updatedAt": "2018-04-27T06:42:43.408Z"
}