{
  "contractName": "Writer",
  "abi": [
    {
      "constant": true,
      "inputs": [],
      "name": "supportsInterface",
      "outputs": [
        {
          "name": "",
          "type": "bytes32"
        }
      ],
      "payable": false,
      "stateMutability": "view",
      "type": "function"
    },
    {
      "constant": true,
      "inputs": [],
      "name": "owner",
      "outputs": [
        {
          "name": "",
          "type": "address"
        }
      ],
      "payable": false,
      "stateMutability": "view",
      "type": "function"
    },
    {
      "constant": false,
      "inputs": [
        {
          "name": "newOwner",
          "type": "address"
        }
      ],
      "name": "transferOwnership",
      "outputs": [],
      "payable": false,
      "stateMutability": "nonpayable",
      "type": "function"
    },
    {
      "inputs": [
        {
          "name": "name",
          "type": "string"
        }
      ],
      "payable": false,
      "stateMutability": "nonpayable",
      "type": "constructor"
    },
    {
      "anonymous": false,
      "inputs": [
        {
          "indexed": false,
          "name": "ipfsHashes",
          "type": "bytes32[]"
        },
        {
          "indexed": false,
          "name": "writerAddress",
          "type": "address"
        }
      ],
      "name": "GetAllPost",
      "type": "event"
    },
    {
      "anonymous": false,
      "inputs": [
        {
          "indexed": true,
          "name": "previousOwner",
          "type": "address"
        },
        {
          "indexed": true,
          "name": "newOwner",
          "type": "address"
        }
      ],
      "name": "OwnershipTransferred",
      "type": "event"
    },
    {
      "constant": true,
      "inputs": [
        {
          "name": "senderAddress",
          "type": "address"
        }
      ],
      "name": "isWriter",
      "outputs": [
        {
          "name": "success",
          "type": "bool"
        }
      ],
      "payable": false,
      "stateMutability": "view",
      "type": "function"
    },
    {
      "constant": false,
      "inputs": [
        {
          "name": "writerAddress",
          "type": "address"
        }
      ],
      "name": "insertWriter",
      "outputs": [
        {
          "name": "success",
          "type": "bool"
        }
      ],
      "payable": false,
      "stateMutability": "nonpayable",
      "type": "function"
    },
    {
      "constant": true,
      "inputs": [
        {
          "name": "writerAddress",
          "type": "address"
        }
      ],
      "name": "getAllPosts",
      "outputs": [],
      "payable": false,
      "stateMutability": "view",
      "type": "function"
    },
    {
      "constant": false,
      "inputs": [
        {
          "name": "ipfsHash",
          "type": "bytes32"
        },
        {
          "name": "writerAddress",
          "type": "address"
        }
      ],
      "name": "insertPost",
      "outputs": [],
      "payable": false,
      "stateMutability": "nonpayable",
      "type": "function"
    }
  ],
  "bytecode": "0x6060604052341561000f57600080fd5b6040516109fa3803806109fa83398101604052808051820191905050336000806101000a81548173ffffffffffffffffffffffffffffffffffffffff021916908373ffffffffffffffffffffffffffffffffffffffff160217905550806040518082805190602001908083835b6020831015156100a1578051825260208201915060208101905060208303925061007c565b6001836020036101000a03801982511681845116808217855250505050505090500191505060405180910390206001816000191690555050610912806100e86000396000f300606060405260043610610083576000357c0100000000000000000000000000000000000000000000000000000000900463ffffffff1680632b29ba2314610088578063585582fb146100d95780635f5a04451461010a57806377d2765c146101505780638da5cb5b14610189578063a42b4b61146101de578063f2fde38b1461022f575b600080fd5b341561009357600080fd5b6100bf600480803573ffffffffffffffffffffffffffffffffffffffff16906020019091905050610268565b604051808215151515815260200191505060405180910390f35b34156100e457600080fd5b6100ec610314565b60405180826000191660001916815260200191505060405180910390f35b341561011557600080fd5b61014e60048080356000191690602001909190803573ffffffffffffffffffffffffffffffffffffffff1690602001909190505061031a565b005b341561015b57600080fd5b610187600480803573ffffffffffffffffffffffffffffffffffffffff16906020019091905050610463565b005b341561019457600080fd5b61019c610568565b604051808273ffffffffffffffffffffffffffffffffffffffff1673ffffffffffffffffffffffffffffffffffffffff16815260200191505060405180910390f35b34156101e957600080fd5b610215600480803573ffffffffffffffffffffffffffffffffffffffff1690602001909190505061058d565b604051808215151515815260200191505060405180910390f35b341561023a57600080fd5b610266600480803573ffffffffffffffffffffffffffffffffffffffff169060200190919050506106ef565b005b6000806003805490501415610280576000905061030f565b6000600260008473ffffffffffffffffffffffffffffffffffffffff1673ffffffffffffffffffffffffffffffffffffffff16815260200190815260200160002060020160009054906101000a900473ffffffffffffffffffffffffffffffffffffffff1673ffffffffffffffffffffffffffffffffffffffff16141561030a576000905061030f565b600190505b919050565b60015481565b6000809054906101000a900473ffffffffffffffffffffffffffffffffffffffff1673ffffffffffffffffffffffffffffffffffffffff163373ffffffffffffffffffffffffffffffffffffffff1614151561037557600080fd5b61037e81610268565b151561038957600080fd5b600260008273ffffffffffffffffffffffffffffffffffffffff1673ffffffffffffffffffffffffffffffffffffffff16815260200190815260200160002060010180548060010182816103dd9190610844565b91600052602060002090016000849091909150906000191690555081600260008373ffffffffffffffffffffffffffffffffffffffff1673ffffffffffffffffffffffffffffffffffffffff1681526020019081526020016000206000016000846000191660001916815260200190815260200160002060020181600019169055505050565b61046c81610268565b151561047757600080fd5b7f3b02e337daa401f5fa7ad4847d25a7140780a1b3c0a6e82e8b182b71fa5c1f43600260008373ffffffffffffffffffffffffffffffffffffffff1673ffffffffffffffffffffffffffffffffffffffff1681526020019081526020016000206001018260405180806020018373ffffffffffffffffffffffffffffffffffffffff1673ffffffffffffffffffffffffffffffffffffffff168152602001828103825284818154815260200191508054801561055657602002820191906000526020600020905b8154600019168152602001906001019080831161053e575b5050935050505060405180910390a150565b6000809054906101000a900473ffffffffffffffffffffffffffffffffffffffff1681565b60008060009054906101000a900473ffffffffffffffffffffffffffffffffffffffff1673ffffffffffffffffffffffffffffffffffffffff163373ffffffffffffffffffffffffffffffffffffffff161415156105ea57600080fd5b6105f382610268565b1561060157600090506106ea565b600380548060010182816106159190610870565b9160005260206000209001600084909190916101000a81548173ffffffffffffffffffffffffffffffffffffffff021916908373ffffffffffffffffffffffffffffffffffffffff1602179055505081600260008473ffffffffffffffffffffffffffffffffffffffff1673ffffffffffffffffffffffffffffffffffffffff16815260200190815260200160002060020160006101000a81548173ffffffffffffffffffffffffffffffffffffffff021916908373ffffffffffffffffffffffffffffffffffffffff160217905550600190505b919050565b6000809054906101000a900473ffffffffffffffffffffffffffffffffffffffff1673ffffffffffffffffffffffffffffffffffffffff163373ffffffffffffffffffffffffffffffffffffffff1614151561074a57600080fd5b600073ffffffffffffffffffffffffffffffffffffffff168173ffffffffffffffffffffffffffffffffffffffff161415151561078657600080fd5b8073ffffffffffffffffffffffffffffffffffffffff166000809054906101000a900473ffffffffffffffffffffffffffffffffffffffff1673ffffffffffffffffffffffffffffffffffffffff167f8be0079c531659141344cd1fd0a4f28419497f9722a3daafe3b4186f6b6457e060405160405180910390a3806000806101000a81548173ffffffffffffffffffffffffffffffffffffffff021916908373ffffffffffffffffffffffffffffffffffffffff16021790555050565b81548183558181151161086b5781836000526020600020918201910161086a919061089c565b5b505050565b8154818355818115116108975781836000526020600020918201910161089691906108c1565b5b505050565b6108be91905b808211156108ba5760008160009055506001016108a2565b5090565b90565b6108e391905b808211156108df5760008160009055506001016108c7565b5090565b905600a165627a7a72305820c913311d3351e0b75e2ef28f5f1abc0e4c5c5336a2d7b0b5f681e781386a3c310029",
  "source": "pragma solidity ^0.4.9;\nimport \"../node_modules/zeppelin-solidity/contracts/ownership/Ownable.sol\";\n\ncontract Writer is Ownable {\n\n  bytes32 public supportsInterface;\n  function Writer(string name) public {\n    supportsInterface = keccak256(name);\n  }\n\n  // mapping to storage address => writer's data\n  mapping(address => WriterStruct) writers;\n  address[] writerAddresses;\n\n  // store ipfs hashes and extra data\n  struct WriterStruct {\n    mapping(bytes32 => ExtraData) articles;\n    bytes32[] articleHashes;\n    address writerAddress;\n  }\n\n  // store extra data of specific ipfs hash\n  struct ExtraData {\n    mapping(bytes32 => bytes) value;\n    bytes32[] keys;\n    bytes32 articleHash;\n  }\n\n  function isWriter(address senderAddress) \n    public\n    view\n    returns(bool success)\n  {\n    if (writerAddresses.length == 0) {\n      return false;\n    }\n    if (writers[senderAddress].writerAddress == 0) {\n      return false;\n    }\n    return true;\n  }\n\n  function insertWriter(address writerAddress) \n    public\n    onlyOwner\n    returns(bool success)\n  {\n    if (isWriter(writerAddress)) {\n      return false;\n    }\n\n    writerAddresses.push(writerAddress);\n    writers[writerAddress].writerAddress = writerAddress;\n\n    return true;\n  }\n\n  event GetAllPost(\n    bytes32[] ipfsHashes,\n    address writerAddress\n  );\n  function getAllPosts(address writerAddress)\n    view\n    public \n  {\n    if (!isWriter(writerAddress)) {\n      revert();\n    }\n\n    GetAllPost(writers[writerAddress].articleHashes, writerAddress);\n  }\n\n  function insertPost(bytes32 ipfsHash, address writerAddress)\n    public\n    onlyOwner\n  {\n    if (!isWriter(writerAddress)) {\n      revert();\n    }\n\n    writers[writerAddress].articleHashes.push(ipfsHash);\n    writers[writerAddress].articles[ipfsHash].articleHash = ipfsHash;\n  }\n}\n",
  "sourcePath": "/Users/jermysu/Desktop/ethereum/ds-news/service/truffle/contracts/Writer.sol",
  "compiler": {
    "name": "solc",
    "version": "0.4.19+commit.c4cbbb05.Emscripten.clang"
  },
  "schemaVersion": "2.0.0",
  "updatedAt": "2018-04-13T10:39:58.185Z"
}