{
  "contractName": "WriterManager",
  "abi": [
    {
      "constant": true,
      "inputs": [],
      "name": "owner",
      "outputs": [
        {
          "name": "",
          "type": "address"
        }
      ],
      "payable": false,
      "stateMutability": "view",
      "type": "function"
    },
    {
      "constant": false,
      "inputs": [
        {
          "name": "newOwner",
          "type": "address"
        }
      ],
      "name": "transferOwnership",
      "outputs": [],
      "payable": false,
      "stateMutability": "nonpayable",
      "type": "function"
    },
    {
      "inputs": [],
      "payable": false,
      "stateMutability": "nonpayable",
      "type": "constructor"
    },
    {
      "anonymous": false,
      "inputs": [
        {
          "indexed": false,
          "name": "newWriterManagerContractAddress",
          "type": "address"
        },
        {
          "indexed": false,
          "name": "newWriterManagerAddress",
          "type": "address"
        }
      ],
      "name": "NewWriterManagerCreated",
      "type": "event"
    },
    {
      "anonymous": false,
      "inputs": [
        {
          "indexed": false,
          "name": "newWriterAddress",
          "type": "address"
        }
      ],
      "name": "NewWriterCreated",
      "type": "event"
    },
    {
      "anonymous": false,
      "inputs": [
        {
          "indexed": false,
          "name": "ipfsHash",
          "type": "bytes32"
        },
        {
          "indexed": false,
          "name": "writerAddress",
          "type": "address"
        }
      ],
      "name": "NewPostCreated",
      "type": "event"
    },
    {
      "anonymous": false,
      "inputs": [
        {
          "indexed": true,
          "name": "previousOwner",
          "type": "address"
        },
        {
          "indexed": true,
          "name": "newOwner",
          "type": "address"
        }
      ],
      "name": "OwnershipTransferred",
      "type": "event"
    },
    {
      "constant": false,
      "inputs": [
        {
          "name": "newWriterAddress",
          "type": "address"
        }
      ],
      "name": "createNewWriter",
      "outputs": [
        {
          "name": "success",
          "type": "bool"
        }
      ],
      "payable": false,
      "stateMutability": "nonpayable",
      "type": "function"
    },
    {
      "constant": false,
      "inputs": [
        {
          "name": "ipfsHash",
          "type": "bytes32"
        }
      ],
      "name": "createNewPost",
      "outputs": [
        {
          "name": "success",
          "type": "bool"
        }
      ],
      "payable": false,
      "stateMutability": "nonpayable",
      "type": "function"
    },
    {
      "constant": true,
      "inputs": [
        {
          "name": "writerAddress",
          "type": "address"
        }
      ],
      "name": "getAllPosts",
      "outputs": [
        {
          "name": "success",
          "type": "bool"
        }
      ],
      "payable": false,
      "stateMutability": "view",
      "type": "function"
    },
    {
      "constant": true,
      "inputs": [
        {
          "name": "sender",
          "type": "address"
        }
      ],
      "name": "isWriter",
      "outputs": [
        {
          "name": "result",
          "type": "bool"
        }
      ],
      "payable": false,
      "stateMutability": "view",
      "type": "function"
    }
  ],
  "bytecode": "0x606060405261000c610185565b8080602001828103825260078152602001807f7772697465727300000000000000000000000000000000000000000000000000815250602001915050604051809103906000f080151561005e57600080fd5b600160006101000a81548173ffffffffffffffffffffffffffffffffffffffff021916908373ffffffffffffffffffffffffffffffffffffffff16021790555034156100a957600080fd5b336000806101000a81548173ffffffffffffffffffffffffffffffffffffffff021916908373ffffffffffffffffffffffffffffffffffffffff1602179055507f08ea3e0c0ddcba4960be60b01e747786da0471ef70152bf7283cea55468415193033604051808373ffffffffffffffffffffffffffffffffffffffff1673ffffffffffffffffffffffffffffffffffffffff1681526020018273ffffffffffffffffffffffffffffffffffffffff1673ffffffffffffffffffffffffffffffffffffffff1681526020019250505060405180910390a1610195565b6040516109fa80610a0c83390190565b610868806101a46000396000f300606060405260043610610078576000357c0100000000000000000000000000000000000000000000000000000000900463ffffffff1680632b29ba231461007d57806377d2765c146100ce5780638da5cb5b1461011f5780638f11778d14610174578063d96e1034146101b3578063f2fde38b14610204575b600080fd5b341561008857600080fd5b6100b4600480803573ffffffffffffffffffffffffffffffffffffffff1690602001909190505061023d565b604051808215151515815260200191505060405180910390f35b34156100d957600080fd5b610105600480803573ffffffffffffffffffffffffffffffffffffffff16906020019091905050610326565b604051808215151515815260200191505060405180910390f35b341561012a57600080fd5b610132610401565b604051808273ffffffffffffffffffffffffffffffffffffffff1673ffffffffffffffffffffffffffffffffffffffff16815260200191505060405180910390f35b341561017f57600080fd5b610199600480803560001916906020019091905050610426565b604051808215151515815260200191505060405180910390f35b34156101be57600080fd5b6101ea600480803573ffffffffffffffffffffffffffffffffffffffff16906020019091905050610598565b604051808215151515815260200191505060405180910390f35b341561020f57600080fd5b61023b600480803573ffffffffffffffffffffffffffffffffffffffff169060200190919050506106e7565b005b6000600160009054906101000a900473ffffffffffffffffffffffffffffffffffffffff1673ffffffffffffffffffffffffffffffffffffffff16632b29ba23836000604051602001526040518263ffffffff167c0100000000000000000000000000000000000000000000000000000000028152600401808273ffffffffffffffffffffffffffffffffffffffff1673ffffffffffffffffffffffffffffffffffffffff168152602001915050602060405180830381600087803b151561030457600080fd5b6102c65a03f1151561031557600080fd5b505050604051805190509050919050565b6000600160009054906101000a900473ffffffffffffffffffffffffffffffffffffffff1673ffffffffffffffffffffffffffffffffffffffff166377d2765c836040518263ffffffff167c0100000000000000000000000000000000000000000000000000000000028152600401808273ffffffffffffffffffffffffffffffffffffffff1673ffffffffffffffffffffffffffffffffffffffff168152602001915050600060405180830381600087803b15156103e457600080fd5b6102c65a03f115156103f557600080fd5b50505060019050919050565b6000809054906101000a900473ffffffffffffffffffffffffffffffffffffffff1681565b60006104313361023d565b151561043c57600080fd5b600160009054906101000a900473ffffffffffffffffffffffffffffffffffffffff1673ffffffffffffffffffffffffffffffffffffffff16635f5a044583336040518363ffffffff167c01000000000000000000000000000000000000000000000000000000000281526004018083600019166000191681526020018273ffffffffffffffffffffffffffffffffffffffff1673ffffffffffffffffffffffffffffffffffffffff16815260200192505050600060405180830381600087803b151561050857600080fd5b6102c65a03f1151561051957600080fd5b5050507fa8a4a7b2be9bdf488d25c8e03ecc1a812c4284e105f015d8f350e4ee12369d0382336040518083600019166000191681526020018273ffffffffffffffffffffffffffffffffffffffff1673ffffffffffffffffffffffffffffffffffffffff1681526020019250505060405180910390a160019050919050565b6000600160009054906101000a900473ffffffffffffffffffffffffffffffffffffffff1673ffffffffffffffffffffffffffffffffffffffff1663a42b4b61836000604051602001526040518263ffffffff167c0100000000000000000000000000000000000000000000000000000000028152600401808273ffffffffffffffffffffffffffffffffffffffff1673ffffffffffffffffffffffffffffffffffffffff168152602001915050602060405180830381600087803b151561065f57600080fd5b6102c65a03f1151561067057600080fd5b50505060405180519050507f46f34e1fb9293c7eff0f5b4e035559bad50f1ccc4f01b99aa9d467d39c11efbe30604051808273ffffffffffffffffffffffffffffffffffffffff1673ffffffffffffffffffffffffffffffffffffffff16815260200191505060405180910390a160019050919050565b6000809054906101000a900473ffffffffffffffffffffffffffffffffffffffff1673ffffffffffffffffffffffffffffffffffffffff163373ffffffffffffffffffffffffffffffffffffffff1614151561074257600080fd5b600073ffffffffffffffffffffffffffffffffffffffff168173ffffffffffffffffffffffffffffffffffffffff161415151561077e57600080fd5b8073ffffffffffffffffffffffffffffffffffffffff166000809054906101000a900473ffffffffffffffffffffffffffffffffffffffff1673ffffffffffffffffffffffffffffffffffffffff167f8be0079c531659141344cd1fd0a4f28419497f9722a3daafe3b4186f6b6457e060405160405180910390a3806000806101000a81548173ffffffffffffffffffffffffffffffffffffffff021916908373ffffffffffffffffffffffffffffffffffffffff160217905550505600a165627a7a72305820bc2567dcd92971e776ef355d60bf7294ff154054c2fa4ba06bbf3e740efbe01300296060604052341561000f57600080fd5b6040516109fa3803806109fa83398101604052808051820191905050336000806101000a81548173ffffffffffffffffffffffffffffffffffffffff021916908373ffffffffffffffffffffffffffffffffffffffff160217905550806040518082805190602001908083835b6020831015156100a1578051825260208201915060208101905060208303925061007c565b6001836020036101000a03801982511681845116808217855250505050505090500191505060405180910390206001816000191690555050610912806100e86000396000f300606060405260043610610083576000357c0100000000000000000000000000000000000000000000000000000000900463ffffffff1680632b29ba2314610088578063585582fb146100d95780635f5a04451461010a57806377d2765c146101505780638da5cb5b14610189578063a42b4b61146101de578063f2fde38b1461022f575b600080fd5b341561009357600080fd5b6100bf600480803573ffffffffffffffffffffffffffffffffffffffff16906020019091905050610268565b604051808215151515815260200191505060405180910390f35b34156100e457600080fd5b6100ec610314565b60405180826000191660001916815260200191505060405180910390f35b341561011557600080fd5b61014e60048080356000191690602001909190803573ffffffffffffffffffffffffffffffffffffffff1690602001909190505061031a565b005b341561015b57600080fd5b610187600480803573ffffffffffffffffffffffffffffffffffffffff16906020019091905050610463565b005b341561019457600080fd5b61019c610568565b604051808273ffffffffffffffffffffffffffffffffffffffff1673ffffffffffffffffffffffffffffffffffffffff16815260200191505060405180910390f35b34156101e957600080fd5b610215600480803573ffffffffffffffffffffffffffffffffffffffff1690602001909190505061058d565b604051808215151515815260200191505060405180910390f35b341561023a57600080fd5b610266600480803573ffffffffffffffffffffffffffffffffffffffff169060200190919050506106ef565b005b6000806003805490501415610280576000905061030f565b6000600260008473ffffffffffffffffffffffffffffffffffffffff1673ffffffffffffffffffffffffffffffffffffffff16815260200190815260200160002060020160009054906101000a900473ffffffffffffffffffffffffffffffffffffffff1673ffffffffffffffffffffffffffffffffffffffff16141561030a576000905061030f565b600190505b919050565b60015481565b6000809054906101000a900473ffffffffffffffffffffffffffffffffffffffff1673ffffffffffffffffffffffffffffffffffffffff163373ffffffffffffffffffffffffffffffffffffffff1614151561037557600080fd5b61037e81610268565b151561038957600080fd5b600260008273ffffffffffffffffffffffffffffffffffffffff1673ffffffffffffffffffffffffffffffffffffffff16815260200190815260200160002060010180548060010182816103dd9190610844565b91600052602060002090016000849091909150906000191690555081600260008373ffffffffffffffffffffffffffffffffffffffff1673ffffffffffffffffffffffffffffffffffffffff1681526020019081526020016000206000016000846000191660001916815260200190815260200160002060020181600019169055505050565b61046c81610268565b151561047757600080fd5b7f3b02e337daa401f5fa7ad4847d25a7140780a1b3c0a6e82e8b182b71fa5c1f43600260008373ffffffffffffffffffffffffffffffffffffffff1673ffffffffffffffffffffffffffffffffffffffff1681526020019081526020016000206001018260405180806020018373ffffffffffffffffffffffffffffffffffffffff1673ffffffffffffffffffffffffffffffffffffffff168152602001828103825284818154815260200191508054801561055657602002820191906000526020600020905b8154600019168152602001906001019080831161053e575b5050935050505060405180910390a150565b6000809054906101000a900473ffffffffffffffffffffffffffffffffffffffff1681565b60008060009054906101000a900473ffffffffffffffffffffffffffffffffffffffff1673ffffffffffffffffffffffffffffffffffffffff163373ffffffffffffffffffffffffffffffffffffffff161415156105ea57600080fd5b6105f382610268565b1561060157600090506106ea565b600380548060010182816106159190610870565b9160005260206000209001600084909190916101000a81548173ffffffffffffffffffffffffffffffffffffffff021916908373ffffffffffffffffffffffffffffffffffffffff1602179055505081600260008473ffffffffffffffffffffffffffffffffffffffff1673ffffffffffffffffffffffffffffffffffffffff16815260200190815260200160002060020160006101000a81548173ffffffffffffffffffffffffffffffffffffffff021916908373ffffffffffffffffffffffffffffffffffffffff160217905550600190505b919050565b6000809054906101000a900473ffffffffffffffffffffffffffffffffffffffff1673ffffffffffffffffffffffffffffffffffffffff163373ffffffffffffffffffffffffffffffffffffffff1614151561074a57600080fd5b600073ffffffffffffffffffffffffffffffffffffffff168173ffffffffffffffffffffffffffffffffffffffff161415151561078657600080fd5b8073ffffffffffffffffffffffffffffffffffffffff166000809054906101000a900473ffffffffffffffffffffffffffffffffffffffff1673ffffffffffffffffffffffffffffffffffffffff167f8be0079c531659141344cd1fd0a4f28419497f9722a3daafe3b4186f6b6457e060405160405180910390a3806000806101000a81548173ffffffffffffffffffffffffffffffffffffffff021916908373ffffffffffffffffffffffffffffffffffffffff16021790555050565b81548183558181151161086b5781836000526020600020918201910161086a919061089c565b5b505050565b8154818355818115116108975781836000526020600020918201910161089691906108c1565b5b505050565b6108be91905b808211156108ba5760008160009055506001016108a2565b5090565b90565b6108e391905b808211156108df5760008160009055506001016108c7565b5090565b905600a165627a7a72305820c913311d3351e0b75e2ef28f5f1abc0e4c5c5336a2d7b0b5f681e781386a3c310029",
  "source": "pragma solidity ^0.4.4;\nimport \"../node_modules/zeppelin-solidity/contracts/ownership/Ownable.sol\";\nimport \"./Writer.sol\";\n\ncontract WriterManager is Ownable {\n  event NewWriterManagerCreated (\n    address newWriterManagerContractAddress,\n    address newWriterManagerAddress\n  );\n  function WriterManager() public {\n    NewWriterManagerCreated(address(this), msg.sender);\n  }\n\n  Writer writers = new Writer('writers');\n  event NewWriterCreated (\n    address newWriterAddress\n  );\n  function createNewWriter(address newWriterAddress) \n    public \n    returns(bool success)\n  {\n    writers.insertWriter(newWriterAddress);\n    NewWriterCreated(address(this));\n    return true;\n  }\n\n  event NewPostCreated (\n    bytes32 ipfsHash,\n    address writerAddress\n  );\n  function createNewPost(bytes32 ipfsHash)\n    public\n    onlyWriter\n    returns(bool success)\n  {\n    writers.insertPost(ipfsHash, msg.sender);\n    NewPostCreated(ipfsHash, msg.sender);\n    return true;\n  }\n\n  function getAllPosts(address writerAddress) \n    public\n    view\n    returns(bool success)\n  {\n    writers.getAllPosts(writerAddress);\n    return true;\n  }\n\n  modifier onlyWriter() {\n    require(isWriter(msg.sender));\n    _;\n  }\n\n  function isWriter(address sender)\n    public\n    view\n    returns(bool result)\n  {\n    return writers.isWriter(sender);\n  }\n}\n",
  "sourcePath": "/Users/jermysu/Desktop/ethereum/ds-news/service/truffle/contracts/WriterManager.sol",
  "compiler": {
    "name": "solc",
    "version": "0.4.19+commit.c4cbbb05.Emscripten.clang"
  },
  "schemaVersion": "2.0.0",
  "updatedAt": "2018-04-13T06:07:12.553Z"
}